:020000040800F2
:1000000000000220710D0008B5070008B7070008BE
:10001000B9070008BB070008BD0700080000000082
:10002000000000000000000000000000BF07000802
:10003000C107000800000000C3070008C50700084A
:10004000C10D0008C10D0008C10D0008C10D000858
:10005000C10D0008C10D0008C10D0008C10D000848
:10006000C10D0008C10D0008C10D0008C10D000838
:10007000CD070008C10D0008C10D0008C10D000822
:10008000C10D0008C10D0008C10D0008C10D000818
:10009000C10D0008C10D0008C10D0008C10D000808
:1000A000C10D0008C10D0008C10D0008C10D0008F8
:1000B000C10D0008C10D0008C10D0008C10D0008E8
:1000C000C10D0008C10D0008C10D0008C10D0008D8
:1000D000C10D0008C10D0008C10D0008D1070008BE
:1000E000C10D0008C10D0008C10D0008C10D0008B8
:1000F000C10D0008C10D0008C10D0008C10D0008A8
:10010000C10D0008C10D0008C10D0008C10D000897
:10011000C10D0008C10D0008C10D0008C10D000887
:10012000C10D0008C10D0008C10D0008C10D000877
:10013000C10D0008C10D0008C10D0008C10D000867
:10014000C10D0008C10D0008C10D0008C10D000857
:10015000C10D0008C10D0008C10D0008C10D000847
:10016000C10D0008C10D0008C10D0008C10D000837
:10017000C10D0008C10D0008C10D000800000000FD
:08018000C10D0008C10D0008CB
:1001880010B5054C237833B9044B13B10448AFF3C9
:1001980000800123237010BD0C0000200000000027
:1001A8000C0E000808B5034B1BB103490348AFF315
:1001B800008008BD00000000100000200C0E0008A0
:1001C80053B94AB9002908BF00281CBF4FF0FF31B6
:1001D8004FF0FF3000F06EB9ADF1080C6DE904CEB8
:1001E80000F006F8DDF804E0DDE9022304B070470A
:1001F8002DE9F047089D04468C46002B40F083808B
:100208008A42174647D9B2FA82F242B1C2F12000B7
:1002180024FA00F09140974040EA010C94404FEADC
:100228001748230CBCFBF8F61FFA87FE08FB16C11B
:1002380043EA014306FB0EF1994209D9FB1806F17E
:10024800FF3080F01981994240F21681023E3B440A
:100258005B1AA4B2B3FBF8F008FB103344EA03447A
:1002680000FB0EFEA64509D93C1900F1FF3380F0CA
:100278000581A64540F2028102383C4440EA064026
:10028800A4EB0E0400261DB1D4400023C5E90043A9
:100298003146BDE8F08702B9FFDEB2FA82F2002AE1
:1002A80050D1CB1B4FEA174E1FFA87F80126B3FB34
:1002B800FEFC210C0EFB1C3341EA034108FB0CF346
:1002C8008B4207D979180CF1FF3002D28B4200F229
:1002D800E9808446C91AA3B2B1FBFEF00EFB1011E7
:1002E80043EA014408FB00F8A04507D93C1900F18E
:1002F800FF3302D2A04500F2D9801846A4EB0804C7
:1003080040EA0C40BFE78B4209D9002D00F0B180CC
:100318000026C5E9000130463146BDE8F087B3FA4A
:1003280083F6002E4AD18B4202D3824200F2B88073
:10033800841A61EB030101208C46002DA8D0C5E981
:10034800004CA5E7C2F1200320FA03F6974001FA12
:1003580002F04FEA174ED9403043030CB1FBFEF6CA
:100368001FFA87F80EFB161143EA014306FB08F152
:10037800994204FA02F409D9FB1806F1FF3C80F00F
:100388008D80994240F28A80023E3B445B1A81B2DA
:10039800B3FBFEF00EFB103341EA034100FB08F308
:1003A8008B4207D9791800F1FF3C73D28B4271D97F
:1003B80002383944CB1A40EA064678E7C6F1200CE1
:1003C80003FA06F422FA0CF31C4320FA0CF701FA9C
:1003D80006F34FEA144E21FA0CF11F433B0CB1FB14
:1003E800FEF91FFA84F80EFB191143EA014109FBD3
:1003F80008FA8A4502FA06F200FA06F308D96118E3
:1004080009F1FF3048D28A4546D9A9F102092144A9
:10041800A1EB0A01BFB2B1FBFEF00EFB101147EAD7
:10042800014700FB08F8B84507D9E71900F1FF3183
:100438002ED2B8452CD90238274440EA0940A7EB08
:100448000807A0FB02894F45C64649461AD317D06C
:100458005DB1B3EB0E0267EB010707FA0CFCF24043
:100468004CEA0202F740C5E9002700263146BDE8FC
:10047800F0872E4628460BE70646E9E61846FDE6CD
:100488004345E5D2B8EB020E69EB04010138DFE71A
:100498000846D2E760468DE78146B9E7664675E7C4
:1004A80030464AE7ACF1020C394413E702383C44C1
:1004B80024E700BF704700BF82B0154B1A6B42F4A7
:1004C80000121A631B6B03F400130193019B114B79
:1004D800DA68C2F30222C2F10703042B28BF0423FF
:1004E8001946131D062B11D9033A4FF0FF338B40E1
:1004F800DB4303F0090393401B01DBB2064A82F891
:100508000C334FF48053136002B070470022ECE7BD
:100518000038024000ED00E000E100E082B0002376
:100528000193064B1A6B42F002021A631B6B03F02D
:1005380002030193019B02B0704700BF00380240DC
:1005480010B590B0002309930A930B930C930D9365
:100558000E930F93434A116C41F480211164116C7E
:1005680001F4802102910299116B41F0020111639B
:10057800126B02F002020192019A4FF49842039220
:1005880002220492032205920693079307230893F5
:1005980003A9354800F096FA344B1A6822F06062D5
:1005A80042F000621A601A6822F0C0021A601A68E3
:1005B80022F440321A601A6822F490721A601A689B
:1005C80022F400721A601A6842F480621A601A688B
:1005D80022F4C0521A601A6822F4C0421A605A699A
:1005E80022F004025A61224BDA68C2F30222C2F1F5
:1005F8000703042B28BF04231946131D062B2ED9E5
:10060800033A4FF0FF338B40DB4303F0070393407B
:100618001B01DBB2174A82F82733802353604FF45B
:10062800E133099300230A930B930C930C220D9248
:100638004FF480720E920F930F4C09A9204600F0D8
:10064800D7FA236923F490432361636923F02A03CB
:100658006361E36843F40053E36010B010BD002207
:10066800CFE700BF00380240000402402860024083
:1006780000ED00E000E100E0004800400C4A0D4BAE
:10068800D3600D4B936053681B0C1B0443F00E039F
:100698005360136843F001031360084BDA6842F0B3
:1006A8001002DA605A6942F040025A61704700BF8E
:1006B800286002402800002004480040004800400C
:1006C80008B52E4A136823F00F0343F0050313609F
:1006D8002A4B1B6803F00F03052BF9D1284A13682E
:1006E80043F48043136002F5E432136823F0F803FF
:1006F80043F080031360136843F001031360214B38
:100708001B6813F0020FFAD01E4A51681E4B0B40AB
:1007180043F4285343F008035360536823F44033E9
:100728005360136843F080731360164B1B6813F013
:10073800007FFAD0134B9A6822F0F0029A609A6808
:1007480022F4E05242F4A0529A609A6822F460427D
:1007580042F400429A609A6822F0030242F00202D0
:100768009A60084B9B6803F00C03082BF9D10748E3
:1007780000F0ECF8002000F04BF908BD003C024006
:1007880000700040003802400080BFFF007A030A72
:1007980008B500F063F9FFF793FFFFF7BFFEFFF717
:1007A8008BFEFFF7CDFEFFF769FFFEE77047FEE718
:1007B800FEE7FEE7FEE770477047704708B500F0B0
:1007C80067F908BD70470000164B1B6813F0100F3F
:1007D80027D082B0134A13680193019B5368019391
:1007E800019B11490B6823F001030B600F4B4FF479
:1007F800006098604FF480609860536923F040036C
:1008080053614B681B0C1B0443F00E034B600B68D1
:1008180043F001030B60536943F04003536102B096
:10082800704770470048004028600240006002405E
:1008380082B0002100910B4B5A6C42F480425A64FA
:100848005A6C02F480420092009A01911A6C42F0AC
:1008580080521A641B6C03F080530193019B02B011
:10086800704700BF00380240034B9B68C3F3031373
:10087800024AD35CD840704700380240240E000872
:10088800034B9B68C3F38223024AD35CD84070476A
:1008980000380240340E0008034B9B68C3F3423310
:1008A800024AD35CD840704700380240340E000832
:1008B8000F4B5B6803F4800323B90E4B082803D061
:1008C800002070470C4BF9E7094A506800F03F00D8
:1008D800B3FBF0F35068C0F3881000FB03F05368D3
:1008E800C3F3014301335B00B0FBF3F0704700BF73
:1008F800003802400024F40040787D0108B5084B18
:100908009B6803F00C03042B05D0082B05D10820A5
:10091800FFF7CEFF02E0034800E0034808BD00BF30
:100928000038024040787D010024F40010B50446E8
:10093800FFF7E4FF2060FFF797FF6060FFF7A0FF75
:10094800A0606068FFF7A8FFE06010BD014B186069
:10095800704700BF08000020074AD36823F4E0630B
:100968001B041B0C000200F4E060034343F0BF6368
:1009780043F40033D360704700ED00E030B4174B08
:10098800DB68C3F30223C3F10704042C28BF042443
:100998001D1D062D18D9033B4FF0FF3505FA04F449
:1009A80021EA0401994005FA03F322EA03031943F3
:1009B80000280BDB0901C9B200F1604000F5614075
:1009C80080F8001330BC70470023E5E700F00F0003
:1009D8000901C9B2024B1954F4E700BF00ED00E069
:1009E80014ED00E00138B0F1807F0AD2064B586060
:1009F800064AF02182F823100020986007221A6026
:100A080070470120704700BF10E000E000ED00E0F3
:100A180010B504460E4B18784FF47A73B3FBF0F315
:100A28000C4A1068B0FBF3F0FFF7DCFF68B90F2C35
:100A380001D901200AE0002221464FF0FF30FFF7DC
:100A48009DFF054B1C60002000E0012010BD00BF89
:100A580000000020080000200400002008B50B4B0F
:100A68001A6842F400721A601A6842F480621A60C6
:100A78001A6842F480721A600320FFF76DFF0020A5
:100A8800FFF7C6FFFFF7D4FE002008BD003C024078
:100A9800034A1168034B1B780B441360704700BF6F
:100AA8003800002000000020054BD3F8882042F4CD
:100AB8007002C3F888204FF000629A60704700BF48
:100AC80000ED00E0F0B40C6894FAA4F4B4FA84F4ED
:100AD8004AE08E68826893FAA3F5B5FA85F56D0049
:100AE800032707FA05F522EA050293FAA3F5B5FAF2
:100AF80085F56D0006FA05F52A438260CD684268DF
:100B080022EA030203FB05F52A4342600E69C26824
:100B180093FAA3F5B5FA85F56D00032707FA05F5ED
:100B280022EA050293FAA3F5B5FA85F56D0006FAEF
:100B380005F52A43C2604A68022A22D04A68056835
:100B480093FAA3F6B6FA86F67600032707FA06F6AE
:100B580025EA060593FAA3F3B3FA83F35B0002FAD6
:100B680003F32B43036001340B6833FA04F23CD0DF
:100B78000122A2401340F6D04A68013A012AC5D89A
:100B8800A7E793FAA3F2B2FA82F2072A15D84E69B8
:100B9800026A93FAA3F5B5FA85F5AD000F2707FAAF
:100BA80005F522EA050293FAA3F5B5FA85F5AD0035
:100BB80006FA05F52A430262C0E74D69466A1A0A31
:100BC80092FAA2F7B7FA87F7BF004FF00F0C0CFAAA
:100BD80007F726EA070692FAA2F2B2FA82F2920020
:100BE80005FA02F232434262A8E70020F0BC7047DF
:100BF800C36813F4005F01D001207047F0B585B0D9
:100C080004460D46C36823F4164323F00C034A68D0
:100C1800C9680A4329690A43A9690A431343C36097
:100C2800AB68026922F44052134303616B6942695D
:100C380022F44072134343616846FFF777FE434B43
:100C48009C4210D0424B9C4214D0424B9C4213D041
:100C5800414B9C4212D0414B9C4211D0404B9C428C
:100C680010D0012070E0039800286CD02B685BB985
:100C7800012069E00298F7E70298F5E70398F3E79F
:100C88000298F1E70298EFE7AA69B2F5004F2CD075
:100C98000026051846EB06012D1846EB0101CA008F
:100CA80042EA5572EF0011469A009B0F381846EB3E
:100CB8000101FFF785FA2B49A1FB003253091A01FC
:100CC80092B2642505FB13031B013233A1FB031306
:100CD800C3F34F1303F0F0010A4492B203F00F0379
:100CE80013449BB2A36000202EE00026051846EBB3
:100CF80006012D1846EB0101CA0042EA5572EF00C1
:100D08001146DA1846EB0603381846EB0101FFF7DF
:100D180057FA1449A1FB003253091A0192B264250B
:100D280005FB1303DB003233A1FB0313C3F34F139B
:100D3800590001F4F8710A4492B203F0070313440E
:100D48009BB2A360CFE7012005B0F0BD00100140C1
:100D5800004400400048004000140140004C00409E
:100D6800005000401F85EB51DFF834D0002103E02C
:100D78000C4B5B58435004310B480C4B42189A42B9
:100D8800F6D30B4A02E0002342F8043B094B9A428F
:100D9800F9D3FFF789FE00F011F8FFF7F9FC704767
:100DA800000002204C0E0008000000200C0000206B
:100DB8000C0000203C000020FEE7000070B50D4D3F
:100DC8000D4C641BA4100026A64209D10B4D0C4CF7
:100DD80000F018F8641BA4100026A64205D170BDC7
:100DE80055F8043B98470136EEE755F8043B984719
:100DF8000136F2E7440E0008440E0008440E0008CD
:100E0800480E0008F8B500BFF8BC08BC9E467047FD
:0C0E1800F8B500BFF8BC08BC9E4670474F
:100E24000000000000000000010203040607080996
:080E34000000000001020304AC
:080E3C00BCF3FF7F0100000080
:040E4400AD010008F4
:040E48008901000814
:0C0E4C0001000000100000000024F40071
:0400000508000D7171
:00000001FF
