:020000040800F2
:10000000000002201D1C000811070008130700084B
:10001000150700081707000819070008000000006E
:100020000000000000000000000000001B070008A6
:100030001D070008000000001F0700082107000836
:100040006D1C00086D1C00086D1C00086D1C00086C
:100050006D1C00086D1C00086D1C00086D1C00085C
:100060006D1C00086D1C00086D1C00086D1C00084C
:100070006D1C00086D1C00086D1C00086D1C00083C
:100080006D1C00086D1C00086D1C00086D1C00082C
:100090006D1C00086D1C00086D1C00086D1C00081C
:1000A0006D1C00086D1C00086D1C00086D1C00080C
:1000B0006D1C00086D1C00086D1C00086D1C0008FC
:1000C0006D1C00086D1C00086D1C00086D1C0008EC
:1000D0006D1C00086D1C00086D1C00086D1C0008DC
:1000E0006D1C00086D1C00086D1C00086D1C0008CC
:1000F0006D1C00086D1C00086D1C00086D1C0008BC
:100100006D1C00086D1C00086D1C00086D1C0008AB
:100110006D1C00086D1C00086D1C00086D1C00089B
:100120006D1C00086D1C00086D1C00086D1C00088B
:100130006D1C00086D1C00086D1C00086D1C00087B
:100140006D1C00086D1C00086D1C00086D1C00086B
:100150006D1C00086D1C00086D1C00086D1C00085B
:100160006D1C00086D1C00086D1C00086D1C00084B
:100170006D1C00086D1C00086D1C000800000000CC
:080180006D1C00086D1C000855
:1001880010B5054C237833B9044B13B10448AFF3C9
:1001980000800123237010BD0C0000200000000027
:1001A800E41C000808B5034B1BB103490348AFF32F
:1001B800008008BD0000000010000020E41C0008BA
:1001C80053B94AB9002908BF00281CBF4FF0FF31B6
:1001D8004FF0FF3000F06EB9ADF1080C6DE904CEB8
:1001E80000F006F8DDF804E0DDE9022304B070470A
:1001F8002DE9F047089D04468C46002B40F083808B
:100208008A42174647D9B2FA82F242B1C2F12000B7
:1002180024FA00F09140974040EA010C94404FEADC
:100228001748230CBCFBF8F61FFA87FE08FB16C11B
:1002380043EA014306FB0EF1994209D9FB1806F17E
:10024800FF3080F01981994240F21681023E3B440A
:100258005B1AA4B2B3FBF8F008FB103344EA03447A
:1002680000FB0EFEA64509D93C1900F1FF3380F0CA
:100278000581A64540F2028102383C4440EA064026
:10028800A4EB0E0400261DB1D4400023C5E90043A9
:100298003146BDE8F08702B9FFDEB2FA82F2002AE1
:1002A80050D1CB1B4FEA174E1FFA87F80126B3FB34
:1002B800FEFC210C0EFB1C3341EA034108FB0CF346
:1002C8008B4207D979180CF1FF3002D28B4200F229
:1002D800E9808446C91AA3B2B1FBFEF00EFB1011E7
:1002E80043EA014408FB00F8A04507D93C1900F18E
:1002F800FF3302D2A04500F2D9801846A4EB0804C7
:1003080040EA0C40BFE78B4209D9002D00F0B180CC
:100318000026C5E9000130463146BDE8F087B3FA4A
:1003280083F6002E4AD18B4202D3824200F2B88073
:10033800841A61EB030101208C46002DA8D0C5E981
:10034800004CA5E7C2F1200320FA03F6974001FA12
:1003580002F04FEA174ED9403043030CB1FBFEF6CA
:100368001FFA87F80EFB161143EA014306FB08F152
:10037800994204FA02F409D9FB1806F1FF3C80F00F
:100388008D80994240F28A80023E3B445B1A81B2DA
:10039800B3FBFEF00EFB103341EA034100FB08F308
:1003A8008B4207D9791800F1FF3C73D28B4271D97F
:1003B80002383944CB1A40EA064678E7C6F1200CE1
:1003C80003FA06F422FA0CF31C4320FA0CF701FA9C
:1003D80006F34FEA144E21FA0CF11F433B0CB1FB14
:1003E800FEF91FFA84F80EFB191143EA014109FBD3
:1003F80008FA8A4502FA06F200FA06F308D96118E3
:1004080009F1FF3048D28A4546D9A9F102092144A9
:10041800A1EB0A01BFB2B1FBFEF00EFB101147EAD7
:10042800014700FB08F8B84507D9E71900F1FF3183
:100438002ED2B8452CD90238274440EA0940A7EB08
:100448000807A0FB02894F45C64649461AD317D06C
:100458005DB1B3EB0E0267EB010707FA0CFCF24043
:100468004CEA0202F740C5E9002700263146BDE8FC
:10047800F0872E4628460BE70646E9E61846FDE6CD
:100488004345E5D2B8EB020E69EB04010138DFE71A
:100498000846D2E760468DE78146B9E7664675E7C4
:1004A80030464AE7ACF1020C394413E702383C44C1
:1004B80024E700BF704700BF30B589B0002403941B
:1004C800049405940694079400941D4B1A6B42F00B
:1004D80020021A631A6B02F020020092009A01941B
:1004E8001A6B42F080021A631A6B02F080020192C2
:1004F800019A02941A6B42F001021A631B6B03F013
:1005080001030293029B0F4D22464FF4E0712846E7
:1005180001F0CCFA4FF4E07303930123049305949C
:10052800069403A9284601F0DBF9082303930494F1
:10053800059403A9044801F0D3F909B030BD00BF00
:1005480000380240001402400000024070B584B038
:1005580000250095019502950395104C104B2360DA
:100568004FF480336360A5602561257684F82050B8
:10057800E5620C4BA362E5600126E66184F8305021
:100588006661204600F0B0FC0223009301960295B4
:100598006946204600F0E6FD04B070BD3C0400202A
:1005A800002001400100000FF0B585B00F4601386A
:1005B800052806D8DFE800F003101316191C0123DC
:1005C800009305230293012301936946154800F01F
:1005D800C9FD002426461FE002230093F1E7032308
:1005E8000093EEE704230093EBE705230093E8E785
:1005F80006230093E5E70B4D284600F0A1FC1E21D9
:10060800284600F055FD284600F0A8FD0644284677
:1006180000F02EFD0134E4B2BC42ECD3B6FBF7F097
:1006280005B0F0BD3C04002030B595B03022002163
:1006380008A801F04BFB0024039404940594069445
:10064800079401941B4B1A6C42F080521A641B6C7D
:1006580003F080530193019B0294174B1A6842F4EC
:1006680080421A601B6803F480430293029B0225B0
:10067800089501230B9310230C930E950F940823D0
:100688001093A823119312950423139308A800F03C
:1006980031FE0F230393049505944FF4A05306935A
:1006A8004FF480530793052103A801F069F815B0AA
:1006B80030BD00BF003802400070004000B583B074
:1006C80001F07CFAFFF7B0FFFFF7F6FEFFF73EFFF9
:1006D80001210220FFF768FF80B2064B1880064B05
:1006E80001930090054B064A0649002000F024FAC1
:1006F800EEE700BF28000020181D0008FC1C0008B9
:10070800001D0008081D00087047FEE7FEE7FEE729
:10071800FEE770477047704708B501F069FA08BDF1
:10072800054BD3F8882042F47002C3F888204FF0B4
:1007380000629A60704700BF00ED00E010B5044603
:100748008268531C4068834205D820688154A3609E
:10075800E3680133E360A26863689A4200D010BD81
:100768002168206900F0BAFAA368984203D04FF0D4
:10077800FF33E360F3E70023A360F0E72DE9F84FC8
:1007880081460F4615461E46DDF828A00B9A0B46F3
:100798004FF00108AB4204D3B3FBF5F308F10108AD
:1007A800F8E7B04500D2B04612F0010B18D1BAF103
:1007B800000F15D012F0020F02D0BEB1202400E0C5
:1007C8002024BAF1000F0BD0C24509D90AF1FF3A2B
:1007D80021464846FFF7B2FFD9F80C30002BF0DA73
:1007E800D9F80C30002B25DB012407E03024E8E79A
:1007F800B7FBF4F39D4206D805FB04F4012EF7D9A4
:10080800013EF9E71C46B7FBF4F304FB1377124AE1
:10081800D15C4846FFF792FFD9F80C30002B03DB78
:10082800B4FBF5F3AC42EDD2BBF1000F02D0BAF144
:10083800000F01D1BDE8F88FBAF1000FFAD0C24518
:10084800F8D90AF1FF3A20214846FFF777FFD9F88F
:100858000C30002BF0DAEDE7301D00082DE9F04FE1
:1008680083B08046894616469A460C9FDDF834B018
:1008780081EAE174A4EBE1740125A64203DC94FB50
:10088800F6F40135F9E7554500D2554637B1B9F1C7
:10089800000F02DB1BF0040F00D0013F1BF0020F1A
:1008A80002D0BAF1000F03D01BF0010F00D1C7B975
:1008B800D8F80C30002B11DBB9F1000F1FDB1BF04F
:1008C800040F23D1D8F80C30002B07DB0BF00303FF
:1008D800022B20D0D8F80C30002B2FDA03B0BDE85B
:1008E800F08F002FE4D0AF42E2D9013F20214046EB
:1008F800FFF724FFD8F80C30002BF2DAD8E7C9F15B
:1009080000092D214046FFF719FFDBE72B21404660
:10091800FFF714FFD6E7BAF1000FDBD1002FD9D0CB
:10092800002FD7D0AF42D5D9013F30214046FFF73D
:1009380005FFD8F80C30002BF2DACBE7CDF804B07D
:1009480000975346324649464046FFF717FFC5E72A
:10095800F0B599B007460D46164603AB13934023EE
:100968001493002315931790169387E00020012213
:1009780011E040F0010001350CE040F002000135C3
:1009880008E040F00400013504E040F008000135BB
:1009980000E0002212B32B78233B0D2BF9D801A1DC
:1009A80051F823F0930900089B0900089B090008E7
:1009B8009B0900089B0900089B0900089B0900087F
:1009C8009B0900088B0900089B0900087B0900089F
:1009D8009B0900089B090008830900082B78A3F1EC
:1009E8003001C9B2092907D8013502EB820203EBAD
:1009F8004203A3F13002F1E72E2B02D000232C781A
:100A080010E0013500232978A1F13004E4B2092C63
:100A1800F5D8013503EB830301EB4303303BF2E7E1
:100A280015F8014F6C2CFBD0682CF9D0252C6DD013
:100A380020D3782C1ED8582C1CD3583C202C19D8DD
:100A4800DFE804F03D1818181818181818181811A5
:100A58002718181818181818181818185718184890
:100A6800183218183D0033681A1D3260197813A817
:100A7800FFF764FE0135169B002B4CDB15F8011BB4
:100A8800002948D025293FF471AF13A8FFF756FE77
:100A9800F1E731680C1D34600968019000920A2260
:100AA80013A8FFF7DBFEE5E731680C1D3460096821
:100AB800019000920A2213A8FFF760FEDAE7316876
:100AC8000C1D3460096801900092102213A8FFF7EA
:100AD80055FECFE733681A1D32601C6814F8011BF5
:100AE8000029C7D013A8FFF729FE169B002BF5DABB
:100AF800C0E733681A1D3260196800230193082380
:100B08000093102213A8FFF739FEB3E7252113A895
:100B1800FFF714FEAEE7169B002B05DD159A32B9D8
:100B2800159A169B13441693169819B0F0BD03A98D
:100B3800384600F0D3F8F3E70EB400B582B003AB43
:100B480053F8041B019301AAFFF702FF02B05DF8F6
:100B580004EB03B070470369C268934204D8806805
:100B6800801A0344581E70479B1A581E70472DE977
:100B7800F843044688461646C5688768A7EB050902
:100B8800914507D94068284401F092F83544E5605A
:100B9800BDE8F88340684A46284401F089F8ED1B0F
:100BA80035442A4608EB0901606801F081F8E560E0
:100BB800EEE72DE9F843064688461746C5684FF024
:100BC800000918E0641B621EB3685C1B944228BFCE
:100BD8001446BC4228BF3C46706822464146284419
:100BE80001F066F8A144A0443F1B2544B368AB421A
:100BF80009D0F5604FB13469A542E3D3B268641BEC
:100C08001444621EE0E70025F3E74846BDE8F88390
:100C1800114B03221A615A6110499961104ADA612D
:100C28004FF480621A6200229A625A62DA62196686
:100C38000C495966102199661A67DA665A670A4A92
:100C48001068C3F80700094A92E803001860998001
:100C580020229A71704700BF84040020401D0008BC
:100C68003C0000202C0000204C1D0008501D0008EE
:100C7800F8B50F461646451C05EB4505164B03EB24
:100C8800C50500EB400003EBC000C46A012C11D07D
:100C9800022C1CD014B100242046F8BD2846FFF7CA
:100CA8005AFF8642F8D8324639462846FFF75FFF92
:100CB8003446F1E72846FFF74EFF3446864228BF00
:100CC8000446224639462846FFF751FFE4E72846FE
:100CD800FFF76FFF0446DFE784040020F8B50446F9
:100CE8000D461646094B1B786BB1EFF311874FF091
:100CF800200181F31188324629462046FFF7B8FFC4
:100D080087F31188F8BDFFF783FFEEE7840400201E
:100D180082B0002100910B4B5A6C42F480425A6415
:100D28005A6C02F480420092009A01911A6C42F0C7
:100D380080521A641B6C03F080530193019B02B02C
:100D4800704700BF0038024000B589B00023039304
:100D58000493059306930793026803F1804303F510
:100D680090339A4202D009B05DF804FB0022019248
:100D780003F58C33596C41F480715964596C01F452
:100D88008071019101990292196B41F00101196377
:100D98001B6B03F001030293029B042303930323B9
:100DA8000493059203A9024800F09AFDDBE700BF0F
:100DB800000002404A4B5A6822F440325A605A688E
:100DC80041680A435A600268536823F48073536089
:100DD80002685368016943EA012353600268536853
:100DE80023F0407353600268536881680B43536073
:100DF8000268936823F40063936002689368C1688B
:100E08000B439360826A374B9A4257D002689368C3
:100E180023F07063936002689368816A0B43936060
:100E28000268936823F04053936002689368C16A2C
:100E38000B4393600268936823F00203936002688F
:100E48009368017E43EA4103936090F82030002BB9
:100E58003FD00268536843F40063536002685368E4
:100E680023F46043536001684B68426A013A43EADD
:100E780042334B600268D36A23F47003D36201687B
:100E8800CB6AC269013A43EA0253CB6202689368AB
:100E980023F4007393600268936890F8301043EA73
:100EA800412393600268936823F480639360026827
:100EB8009368416943EA81239360704702689368A5
:100EC80023F0706393600268936823F04053936043
:100ED800B0E70268536823F400635360CAE700BFB1
:100EE800002301400100000F38B310B50446036C1D
:100EF80043B1236C13F0100F0BD00120002384F8AA
:100F08003C3010BDFFF720FF0023636484F83C30B9
:100F1800EFE7236C23F4885323F0020343F0020322
:100F280023642046FFF746FF00206064236C23F00B
:100F3800030343F001032364E0E701207047000046
:100F480082B00023019390F83C30012B7DD001231F
:100F580080F83C3003689A6812F0010F13D19A6840
:100F680042F001029A603D4B1B683D4AA2FB0323F5
:100F78009B0C03EB4303019302E0019B013B0193AC
:100F8800019B002BF9D10268936813F0010F5ED022
:100F9800036C23F4E06323F0010343F480730364D8
:100FA800536813F4806F05D0036C23F4405343F463
:100FB80080530364036C13F4805F1BD0436C23F0ED
:100FC80006034364002380F83C306FF0220313606B
:100FD800244B5B6813F01F0F27D10368224A934202
:100FE80011D002F58072934207D0204A934214D060
:100FF80000202DE000234364E4E702F50072526804
:1010080012F01F0FF1D19A6812F0405F22D19A684E
:1010180042F080429A6000201AE002F5807252681D
:1010280012F0100FEFD0002012E003680E4A93422E
:1010380001D000200CE09A6812F0405F0CD19A6849
:1010480042F080429A60002002E0022000E0002086
:1010580002B070470020FBE70020F9E700000020FD
:1010680083DE1B4300230140002001400022014091
:1010780090F83C30012B19D0012380F83C300268ED
:10108800936823F00103936003689B6813F0010FD2
:1010980007D1036C23F4885323F0010343F00103C1
:1010A8000364002380F83C301846704702207047DC
:1010B80070B504460D4603689A6812F4806F03D031
:1010C8009B6813F4807F19D100F09EFD06462368C3
:1010D8001A6812F0020F1AD1B5F1FF3FF7D025B107
:1010E80000F092FD801BA842F1D9236C43F0040361
:1010F8002364002384F83C3003202CE0036C43F085
:1011080020030364002380F83C30012023E06FF0C3
:1011180012021A60236C43F40073236423689A68EC
:1011280012F0405F16D1207EB0B9DA6A12F4700F5F
:1011380003D09B6813F4806F0DD1236C23F4807364
:101148002364236C13F4805F05D1236C43F00103FF
:10115800236400E0002070BD0020FCE70368D86C21
:101168007047000030B482B00023019390F83C30FF
:10117800012B00F0B780012380F83C300B68092B65
:101188003ED90568EA689BB203EB43031E3B07247C
:1011980004FA03F322EA0303EB600568EA688C6843
:1011A8000B8803EB43031E3B04FA03F31343EB6082
:1011B8004B68062B3AD805686A6B03EB8303053B3B
:1011C8001F2404FA03F322EA03036B6305686A6BBE
:1011D8004B6803EB8303053B0C8804FA03F31343C2
:1011E8006B630268404B9A4250D002683E4B9A4269
:1011F80055D0002380F83C30184602B030BC704708
:1012080005682A699BB203EB4303072404FA03F336
:1012180022EA03032B6105682A698C680B8803EBB3
:10122800430304FA03F313432B61C1E70C2B16D8CD
:1012380005682A6B03EB8303233B1F2404FA03F39B
:1012480022EA03032B6305682A6B4B6803EB8303CD
:10125800233B0C8804FA03F313432B63C1E70568A7
:10126800EA6A03EB8303413B1F2404FA03F322EAEF
:101278000303EB620568EA6A4B6803EB8303413BAF
:101288000C8804FA03F31343EB62AAE70B68122BEA
:10129800ABD1164A536843F480035360A5E70B6843
:1012A800103B012BA5D8114A536843F4000353603F
:1012B8000B68102B9DD10E4B1B6802F1467202F58C
:1012C8002E3202F28332A2FB03239B0C03EB83032F
:1012D8005B00019302E0019B013B0193019B002B02
:1012E800F9D186E7022088E7002001400023014069
:1012F80000000020002800F0D98170B582B00446B3
:10130800036813F0010F3BD0A64B9B6803F00C0356
:10131800042B2CD0A34B9B6803F00C03082B21D083
:101328006368B3F5803F4FD0B3F5A02F52D09D4BE3
:101338001A6822F480321A601A6822F480221A602D
:101348006368002B50D000F05FFC0546954B1B6886
:1013580013F4003F14D100F057FC401B6428F5D962
:101368000320AAE18F4B5B6813F4800FD8D08D4B14
:101378001B6813F4003F03D06368002B00F09881CA
:10138800236813F0020F54D0864B9B6813F00C0FA0
:101398003ED0844B9B6803F00C03082B33D0E368E2
:1013A800002B67D0804B01221A6000F02DFC054607
:1013B8007C4B1B6813F0020F53D100F025FC401B37
:1013C8000228F5D9032078E1764A136843F480337C
:1013D8001360B5E7734B1A6842F480221A601A68E2
:1013E80042F480321A60ABE700F00EFC05466D4B04
:1013F8001B6813F4003FC3D000F006FC401B6428B0
:10140800F5D9032059E1674B5B6813F4800FC6D107
:10141800644B1B6813F0020F03D0E368012B40F004
:101428004981604A136823F0F803216943EAC1033C
:101438001360236813F0080F40D0636963B35B4BF4
:1014480001221A6000F0E0FB0546564B5B6F13F073
:10145800020F33D100F0D8FB401B0228F5D9032036
:101468002BE1504A136823F0F803216943EAC103CA
:101478001360DEE74C4B00221A6000F0C5FB0546FE
:10148800484B1B6813F0020FD3D000F0BDFB401B84
:101498000228F5D9032010E1444B00221A6000F01D
:1014A800B3FB05463F4B5B6F13F0020F06D000F00D
:1014B800ABFB401B0228F5D90320FEE0236813F09C
:1014C800040F78D0374B1B6C13F0805F0DD10023CD
:1014D8000193344B1A6C42F080521A641B6C03F06F
:1014E80080530193019B012500E00025304B1B68C8
:1014F80013F4807F21D0A368012B32D0052B36D07E
:10150800284B1A6F22F001021A671A6F22F00402A0
:101518001A67A368002B34D000F076FB0646214BEF
:101528001B6F13F0020F45D100F06EFB801B41F2D8
:1015380088339842F3D90320BFE01D4A136843F467
:101548008073136000F060FB0646194B1B6813F4A8
:10155800807FD0D100F058FB801B0228F5D90320EA
:10156800ABE0104A136F43F001031367D1E70D4B4B
:101578001A6F42F004021A671A6F42F001021A67E2
:10158800C7E700F041FB0646064B1B6F13F0020F3E
:1015980010D000F039FB801B41F288339842F3D910
:1015A80003208AE00038024000004742800E47428C
:1015B80000700040E5B9A369002B7DD0464A9268C7
:1015C80002F00C02082A51D0022B17D0434B0022FC
:1015D8001A6000F019FB04463F4B1B6813F0007FAC
:1015E80042D000F011FB001B0228F5D9032064E06B
:1015F800394A136C23F080531364DCE7374B00221D
:101608001A6000F001FB0546334B1B6813F0007F9E
:1016180006D000F0F9FA401B0228F5D903204CE067
:10162800E369226A1343626A43EA8213A26A520890
:10163800013A43EA0243E26A43EA0263264A5360F4
:10164800264B01221A6000F0DFFA0446224B1B6881
:1016580013F0007F06D100F0D7FA001B0228F5D955
:1016680003202AE0002028E0002026E0012B26D0D5
:10167800194B5B6803F48001E269914221D103F0C0
:101688003F02216A8A421ED1616A47F6C0721A4037
:101698008A421AD103F44032A16A8A4217D103F070
:1016A8007063E26A934214D1002006E0012070477B
:1016B800012002E0012000E0002002B070BD0120FE
:1016C800FBE70120F9E70120F7E70120F5E7012012
:1016D800F3E70120F1E700BF00380240600047420D
:1016E800F8B5244B9B6803F00C03042B3DD0082B62
:1016F8003DD1204B5A6802F03F025B6813F4800F1B
:1017080012D01C4B5968C1F3881100231A48A1FB59
:101718000001FEF755FD174B5B68C3F30143013326
:101728005B00B0FBF3F023E0124B5B68C3F3881354
:101738005C010025E41A65F10005AE0146EA9466ED
:10174800A701381B66EB0501CC0044EA5074C500BC
:10175800E81844F100018B0243EA905384022046C2
:1017680019460023FEF72CFDD5E7034800E003489F
:10177800F8BD00BF0038024040787D010024F40025
:10178800002800F09B8070B50D4604464F4B1B683F
:1017980003F00F038B4208D2CBB24C4A1370136884
:1017A80003F00F038B4240F08B80236813F0020F85
:1017B80017D013F0040F04D0454A936843F4E0535C
:1017C8009360236813F0080F04D0414A936843F4E8
:1017D800604393603E4A936823F0F003A1680B438B
:1017E8009360236813F0010F32D06368012B21D076
:1017F8009A1E012A25D9364A126812F0020F61D0C2
:1018080033498A6822F0030213438B6000F0FCF925
:1018180006462F4B9B6803F00C036268B3EB820FFC
:1018280016D000F0F1F9801B41F288339842F0D9C4
:10183800032042E0264A126812F4003FE0D101205A
:101848003BE0234A126812F0007FD9D1012034E02E
:101858001E4B1B6803F00F03AB4207D9EAB21B4BC0
:101868001A701B6803F00F03AB422DD1236813F0E5
:10187800040F06D0164A936823F4E053E1680B433B
:101888009360236813F0080F07D0114A936823F474
:101898006043216943EAC1039360FFF721FF0C4BC2
:1018A8009B68C3F303130B4AD35CD8400A4B1860F8
:1018B8000A4B186800F05CF9002070BD01207047E1
:1018C8000120FAE70120F8E70120F6E7003C024092
:1018D80000380240201D00080000002008000020F9
:1018E80000230F2B00F2D980F0B583B039E007222E
:1018F80000E00022B2403A430234684E46F8242001
:10190800674A1468EA4324EA05064F6817F4803FDB
:1019180001D045EA0406624C2660646802EA0406BF
:101928004F6817F4003F01D045EA04065C4C666036
:10193800A46802EA04064F6817F4801F01D045EA3C
:101948000406574CA660E46822404E6816F4001F4F
:1019580001D045EA0402524CE26001330F2B00F239
:101968009A8001229A400C6804EA020532EA0404CB
:10197800F3D14C68661E012E03D9112C01D0122C0C
:1019880012D186685F000324BC4026EA0406CC68AE
:10199800BC4034438460466826EA02064C68C4F3B7
:1019A80000129A4032434260C7685E000324B44084
:1019B800E24327EA04078C68B4403C43C4604C689F
:1019C800022C01D0122C13D1DF08083750F827E079
:1019D80003F007044FEA840C0F2404FA0CF42EEAEF
:1019E800040E0C6904FA0CF444EA0E0440F827408B
:1019F800046814404A6802F00302B24022430260BD
:101A08004A6812F0805FA8D000220192254A546CDF
:101A180044F480445464526C02F480420192019A66
:101A28009C08A61C1D4A52F8267003F00302960073
:101A38000F22B24027EA02071B4A90423FF459AFEF
:101A480002F5806290421AD002F58062904218D066
:101A580002F58062904216D002F58062904214D05E
:101A680002F58062904212D002F58062904210D056
:101A780002F5806290423FF43AAF08223AE7012229
:101A880038E7022236E7032234E7042232E7052248
:101A980030E706222EE703B0F0BD7047003801405A
:101AA800003C014000380240000002400AB1816158
:101AB8007047090481617047074AD36823F4E063DB
:101AC8001B041B0C000200F4E060034343F0BF63F7
:101AD80043F40033D360704700ED00E030B4174B97
:101AE800DB68C3F30223C3F10704042C28BF0424D2
:101AF8001D1D062D18D9033B4FF0FF3505FA04F4D8
:101B080021EA0401994005FA03F322EA0303194381
:101B180000280BDB0901C9B200F1604000F5614003
:101B280080F8001330BC70470023E5E700F00F0091
:101B38000901C9B2024B1954F4E700BF00ED00E0F7
:101B480014ED00E00138B0F1807F0AD2064B5860EE
:101B5800064AF02182F823100020986007221A60B4
:101B680070470120704700BF10E000E000ED00E082
:101B780010B504460E4B18784FF47A73B3FBF0F3A4
:101B88000C4A1068B0FBF3F0FFF7DCFF68B90F2CC4
:101B980001D901200AE0002221464FF0FF30FFF76B
:101BA8009DFF054B1C60002000E0012010BD00BF18
:101BB80004000020000000200800002008B50B4B9E
:101BC8001A6842F400721A601A6842F480621A6055
:101BD8001A6842F480721A600320FFF76DFF002034
:101BE800FFF7C6FFFFF794F8002008BD003C02404D
:101BF800034A1168034B1B780B441360704700BFFE
:101C08002C05002004000020014B1868704700BF15
:101C18002C050020DFF834D0002103E00C4B5B5882
:101C2800435004310B480C4B42189A42F6D30B4AE6
:101C380002E0002342F8043B094B9A42F9D3FEF72D
:101C48006FFD00F011F8FEF739FD70470000022023
:101C5800681D0008000000200C0000200C00002077
:101C680030050020FEE7000070B50D4D0D4C641BDB
:101C7800A4100026A64209D10B4D0C4C00F02EF8FA
:101C8800641BA4100026A64205D170BD55F8043B7C
:101C980098470136EEE755F8043B98470136F2E7D6
:101CA800601D0008601D0008601D0008641D000814
:101CB8000A44914200F1FF3300D1704710B511F882
:101CC800014B03F8014F9142F9D110BD024403467C
:101CD800934200D1704703F8011BF9E7F8B500BF3C
:101CE800F8BC08BC9E467047F8B500BFF8BC08BCF5
:041CF8009E4670474D
:101CFC00493A20001B5B313B33326D0020202573A9
:101D0C00257325640D0A2573000000001B5B306DE4
:101D1C0000000000000000000000000001020304AD
:101D2C0006070809303132333435363738394142F9
:101D3C00434445465465726D696E616C0000000049
:0C1D4C00525454005345474745520000D4
:081D5800A0E4FF7F0100000080
:041D6000AD010008C9
:041D640089010008E9
:0C1D68000024F400010000001000000046
:0400000508001C1DB6
:00000001FF
